{
  "contractName": "Marketplace",
  "abi": [
    {
      "inputs": [],
      "stateMutability": "nonpayable",
      "type": "constructor"
    },
    {
      "anonymous": false,
      "inputs": [
        {
          "indexed": true,
          "internalType": "address",
          "name": "owner",
          "type": "address"
        },
        {
          "indexed": true,
          "internalType": "address",
          "name": "approved",
          "type": "address"
        },
        {
          "indexed": true,
          "internalType": "uint256",
          "name": "tokenId",
          "type": "uint256"
        }
      ],
      "name": "Approval",
      "type": "event"
    },
    {
      "anonymous": false,
      "inputs": [
        {
          "indexed": true,
          "internalType": "address",
          "name": "owner",
          "type": "address"
        },
        {
          "indexed": true,
          "internalType": "address",
          "name": "operator",
          "type": "address"
        },
        {
          "indexed": false,
          "internalType": "bool",
          "name": "approved",
          "type": "bool"
        }
      ],
      "name": "ApprovalForAll",
      "type": "event"
    },
    {
      "anonymous": false,
      "inputs": [
        {
          "indexed": false,
          "internalType": "uint256",
          "name": "_fromTokenId",
          "type": "uint256"
        },
        {
          "indexed": false,
          "internalType": "uint256",
          "name": "_toTokenId",
          "type": "uint256"
        }
      ],
      "name": "BatchMetadataUpdate",
      "type": "event"
    },
    {
      "anonymous": false,
      "inputs": [
        {
          "indexed": false,
          "internalType": "uint256",
          "name": "newPrice",
          "type": "uint256"
        }
      ],
      "name": "ListingPriceUpdated",
      "type": "event"
    },
    {
      "anonymous": false,
      "inputs": [
        {
          "indexed": false,
          "internalType": "uint256",
          "name": "_tokenId",
          "type": "uint256"
        }
      ],
      "name": "MetadataUpdate",
      "type": "event"
    },
    {
      "anonymous": false,
      "inputs": [
        {
          "indexed": false,
          "internalType": "uint256",
          "name": "tokenId",
          "type": "uint256"
        },
        {
          "indexed": false,
          "internalType": "address",
          "name": "user",
          "type": "address"
        },
        {
          "indexed": false,
          "internalType": "bool",
          "name": "isLiked",
          "type": "bool"
        },
        {
          "indexed": false,
          "internalType": "uint256",
          "name": "newLikeCount",
          "type": "uint256"
        }
      ],
      "name": "NFTLikeToggled",
      "type": "event"
    },
    {
      "anonymous": false,
      "inputs": [
        {
          "indexed": false,
          "internalType": "uint256",
          "name": "newFee",
          "type": "uint256"
        }
      ],
      "name": "PremiumFeeUpdated",
      "type": "event"
    },
    {
      "anonymous": false,
      "inputs": [
        {
          "indexed": false,
          "internalType": "uint256",
          "name": "tokenId",
          "type": "uint256"
        },
        {
          "indexed": false,
          "internalType": "address",
          "name": "seller",
          "type": "address"
        },
        {
          "indexed": false,
          "internalType": "uint256",
          "name": "price",
          "type": "uint256"
        },
        {
          "indexed": false,
          "internalType": "string",
          "name": "uri",
          "type": "string"
        }
      ],
      "name": "TokenCreated",
      "type": "event"
    },
    {
      "anonymous": false,
      "inputs": [
        {
          "indexed": false,
          "internalType": "uint256",
          "name": "tokenId",
          "type": "uint256"
        },
        {
          "indexed": false,
          "internalType": "address",
          "name": "buyer",
          "type": "address"
        },
        {
          "indexed": false,
          "internalType": "uint256",
          "name": "price",
          "type": "uint256"
        }
      ],
      "name": "TokenPurchased",
      "type": "event"
    },
    {
      "anonymous": false,
      "inputs": [
        {
          "indexed": true,
          "internalType": "address",
          "name": "from",
          "type": "address"
        },
        {
          "indexed": true,
          "internalType": "address",
          "name": "to",
          "type": "address"
        },
        {
          "indexed": true,
          "internalType": "uint256",
          "name": "tokenId",
          "type": "uint256"
        }
      ],
      "name": "Transfer",
      "type": "event"
    },
    {
      "inputs": [
        {
          "internalType": "address",
          "name": "to",
          "type": "address"
        },
        {
          "internalType": "uint256",
          "name": "tokenId",
          "type": "uint256"
        }
      ],
      "name": "approve",
      "outputs": [],
      "stateMutability": "nonpayable",
      "type": "function"
    },
    {
      "inputs": [
        {
          "internalType": "address",
          "name": "owner",
          "type": "address"
        }
      ],
      "name": "balanceOf",
      "outputs": [
        {
          "internalType": "uint256",
          "name": "",
          "type": "uint256"
        }
      ],
      "stateMutability": "view",
      "type": "function",
      "constant": true
    },
    {
      "inputs": [],
      "name": "contractOwner",
      "outputs": [
        {
          "internalType": "address payable",
          "name": "",
          "type": "address"
        }
      ],
      "stateMutability": "view",
      "type": "function",
      "constant": true
    },
    {
      "inputs": [
        {
          "internalType": "uint256",
          "name": "tokenId",
          "type": "uint256"
        }
      ],
      "name": "getApproved",
      "outputs": [
        {
          "internalType": "address",
          "name": "",
          "type": "address"
        }
      ],
      "stateMutability": "view",
      "type": "function",
      "constant": true
    },
    {
      "inputs": [
        {
          "internalType": "address",
          "name": "owner",
          "type": "address"
        },
        {
          "internalType": "address",
          "name": "operator",
          "type": "address"
        }
      ],
      "name": "isApprovedForAll",
      "outputs": [
        {
          "internalType": "bool",
          "name": "",
          "type": "bool"
        }
      ],
      "stateMutability": "view",
      "type": "function",
      "constant": true
    },
    {
      "inputs": [],
      "name": "itemId",
      "outputs": [
        {
          "internalType": "uint256",
          "name": "",
          "type": "uint256"
        }
      ],
      "stateMutability": "view",
      "type": "function",
      "constant": true
    },
    {
      "inputs": [],
      "name": "listingPrice",
      "outputs": [
        {
          "internalType": "uint256",
          "name": "",
          "type": "uint256"
        }
      ],
      "stateMutability": "view",
      "type": "function",
      "constant": true
    },
    {
      "inputs": [],
      "name": "name",
      "outputs": [
        {
          "internalType": "string",
          "name": "",
          "type": "string"
        }
      ],
      "stateMutability": "view",
      "type": "function",
      "constant": true
    },
    {
      "inputs": [
        {
          "internalType": "uint256",
          "name": "tokenId",
          "type": "uint256"
        }
      ],
      "name": "ownerOf",
      "outputs": [
        {
          "internalType": "address",
          "name": "",
          "type": "address"
        }
      ],
      "stateMutability": "view",
      "type": "function",
      "constant": true
    },
    {
      "inputs": [],
      "name": "premiumFee",
      "outputs": [
        {
          "internalType": "uint256",
          "name": "",
          "type": "uint256"
        }
      ],
      "stateMutability": "view",
      "type": "function",
      "constant": true
    },
    {
      "inputs": [
        {
          "internalType": "address",
          "name": "from",
          "type": "address"
        },
        {
          "internalType": "address",
          "name": "to",
          "type": "address"
        },
        {
          "internalType": "uint256",
          "name": "tokenId",
          "type": "uint256"
        }
      ],
      "name": "safeTransferFrom",
      "outputs": [],
      "stateMutability": "nonpayable",
      "type": "function"
    },
    {
      "inputs": [
        {
          "internalType": "address",
          "name": "from",
          "type": "address"
        },
        {
          "internalType": "address",
          "name": "to",
          "type": "address"
        },
        {
          "internalType": "uint256",
          "name": "tokenId",
          "type": "uint256"
        },
        {
          "internalType": "bytes",
          "name": "data",
          "type": "bytes"
        }
      ],
      "name": "safeTransferFrom",
      "outputs": [],
      "stateMutability": "nonpayable",
      "type": "function"
    },
    {
      "inputs": [
        {
          "internalType": "address",
          "name": "operator",
          "type": "address"
        },
        {
          "internalType": "bool",
          "name": "approved",
          "type": "bool"
        }
      ],
      "name": "setApprovalForAll",
      "outputs": [],
      "stateMutability": "nonpayable",
      "type": "function"
    },
    {
      "inputs": [
        {
          "internalType": "bytes4",
          "name": "interfaceId",
          "type": "bytes4"
        }
      ],
      "name": "supportsInterface",
      "outputs": [
        {
          "internalType": "bool",
          "name": "",
          "type": "bool"
        }
      ],
      "stateMutability": "view",
      "type": "function",
      "constant": true
    },
    {
      "inputs": [],
      "name": "symbol",
      "outputs": [
        {
          "internalType": "string",
          "name": "",
          "type": "string"
        }
      ],
      "stateMutability": "view",
      "type": "function",
      "constant": true
    },
    {
      "inputs": [
        {
          "internalType": "uint256",
          "name": "tokenId",
          "type": "uint256"
        }
      ],
      "name": "tokenURI",
      "outputs": [
        {
          "internalType": "string",
          "name": "",
          "type": "string"
        }
      ],
      "stateMutability": "view",
      "type": "function",
      "constant": true
    },
    {
      "inputs": [
        {
          "internalType": "address",
          "name": "from",
          "type": "address"
        },
        {
          "internalType": "address",
          "name": "to",
          "type": "address"
        },
        {
          "internalType": "uint256",
          "name": "tokenId",
          "type": "uint256"
        }
      ],
      "name": "transferFrom",
      "outputs": [],
      "stateMutability": "nonpayable",
      "type": "function"
    },
    {
      "inputs": [
        {
          "internalType": "uint256",
          "name": "_price",
          "type": "uint256"
        },
        {
          "internalType": "string",
          "name": "uri",
          "type": "string"
        }
      ],
      "name": "createToken",
      "outputs": [
        {
          "internalType": "uint256",
          "name": "",
          "type": "uint256"
        }
      ],
      "stateMutability": "payable",
      "type": "function",
      "payable": true
    },
    {
      "inputs": [
        {
          "internalType": "uint256",
          "name": "_itemId",
          "type": "uint256"
        }
      ],
      "name": "buyToken",
      "outputs": [],
      "stateMutability": "payable",
      "type": "function",
      "payable": true
    },
    {
      "inputs": [
        {
          "internalType": "uint256",
          "name": "_newPrice",
          "type": "uint256"
        }
      ],
      "name": "updateListingPrice",
      "outputs": [],
      "stateMutability": "nonpayable",
      "type": "function"
    },
    {
      "inputs": [
        {
          "internalType": "uint256",
          "name": "_newFee",
          "type": "uint256"
        }
      ],
      "name": "updatePremiumFee",
      "outputs": [],
      "stateMutability": "nonpayable",
      "type": "function"
    },
    {
      "inputs": [
        {
          "internalType": "uint256",
          "name": "_Id",
          "type": "uint256"
        }
      ],
      "name": "getTokenbyId",
      "outputs": [
        {
          "components": [
            {
              "internalType": "uint256",
              "name": "tokenId",
              "type": "uint256"
            },
            {
              "internalType": "uint256",
              "name": "price",
              "type": "uint256"
            },
            {
              "internalType": "address payable",
              "name": "seller",
              "type": "address"
            },
            {
              "internalType": "address payable",
              "name": "owner",
              "type": "address"
            },
            {
              "internalType": "bool",
              "name": "Listed",
              "type": "bool"
            },
            {
              "internalType": "uint256",
              "name": "likes",
              "type": "uint256"
            }
          ],
          "internalType": "struct Marketplace.nftToken",
          "name": "",
          "type": "tuple"
        }
      ],
      "stateMutability": "view",
      "type": "function",
      "constant": true
    },
    {
      "inputs": [],
      "name": "getAllNFTs",
      "outputs": [
        {
          "components": [
            {
              "internalType": "uint256",
              "name": "tokenId",
              "type": "uint256"
            },
            {
              "internalType": "uint256",
              "name": "price",
              "type": "uint256"
            },
            {
              "internalType": "address payable",
              "name": "seller",
              "type": "address"
            },
            {
              "internalType": "address payable",
              "name": "owner",
              "type": "address"
            },
            {
              "internalType": "bool",
              "name": "Listed",
              "type": "bool"
            },
            {
              "internalType": "uint256",
              "name": "likes",
              "type": "uint256"
            }
          ],
          "internalType": "struct Marketplace.nftToken[]",
          "name": "",
          "type": "tuple[]"
        }
      ],
      "stateMutability": "view",
      "type": "function",
      "constant": true
    },
    {
      "inputs": [
        {
          "internalType": "address",
          "name": "_user",
          "type": "address"
        }
      ],
      "name": "getUserOwnedNFTs",
      "outputs": [
        {
          "components": [
            {
              "internalType": "uint256",
              "name": "tokenId",
              "type": "uint256"
            },
            {
              "internalType": "uint256",
              "name": "price",
              "type": "uint256"
            },
            {
              "internalType": "address payable",
              "name": "seller",
              "type": "address"
            },
            {
              "internalType": "address payable",
              "name": "owner",
              "type": "address"
            },
            {
              "internalType": "bool",
              "name": "Listed",
              "type": "bool"
            },
            {
              "internalType": "uint256",
              "name": "likes",
              "type": "uint256"
            }
          ],
          "internalType": "struct Marketplace.nftToken[]",
          "name": "",
          "type": "tuple[]"
        }
      ],
      "stateMutability": "view",
      "type": "function",
      "constant": true
    },
    {
      "inputs": [
        {
          "internalType": "uint256",
          "name": "_itemId",
          "type": "uint256"
        }
      ],
      "name": "likeNFT",
      "outputs": [],
      "stateMutability": "nonpayable",
      "type": "function"
    },
    {
      "inputs": [
        {
          "internalType": "uint256",
          "name": "_itemId",
          "type": "uint256"
        }
      ],
      "name": "getLikes",
      "outputs": [
        {
          "internalType": "uint256",
          "name": "",
          "type": "uint256"
        }
      ],
      "stateMutability": "view",
      "type": "function",
      "constant": true
    },
    {
      "inputs": [
        {
          "internalType": "uint256",
          "name": "_itemId",
          "type": "uint256"
        },
        {
          "internalType": "address",
          "name": "_user",
          "type": "address"
        }
      ],
      "name": "hasUserLiked",
      "outputs": [
        {
          "internalType": "bool",
          "name": "",
          "type": "bool"
        }
      ],
      "stateMutability": "view",
      "type": "function",
      "constant": true
    }
  ],
  "bytecode": "0x6080604052662386f26fc1000060085566b1a2bc2ec5000060095534801562000026575f80fd5b506040518060400160405280600b81526020017f4d61726b6574706c6163650000000000000000000000000000000000000000008152506040518060400160405280600481526020017f4d4b545000000000000000000000000000000000000000000000000000000000815250815f9081620000a3919062000371565b508060019081620000b5919062000371565b505050600160078190555033600a5f6101000a81548173ffffffffffffffffffffffffffffffffffffffff021916908373ffffffffffffffffffffffffffffffffffffffff1602179055505f600b8190555062000455565b5f81519050919050565b7f4e487b71000000000000000000000000000000000000000000000000000000005f52604160045260245ffd5b7f4e487b71000000000000000000000000000000000000000000000000000000005f52602260045260245ffd5b5f60028204905060018216806200018957607f821691505b6020821081036200019f576200019e62000144565b5b50919050565b5f819050815f5260205f209050919050565b5f6020601f8301049050919050565b5f82821b905092915050565b5f60088302620002037fffffffffffffffffffffffffffffffffffffffffffffffffffffffffffffffff82620001c6565b6200020f8683620001c6565b95508019841693508086168417925050509392505050565b5f819050919050565b5f819050919050565b5f62000259620002536200024d8462000227565b62000230565b62000227565b9050919050565b5f819050919050565b620002748362000239565b6200028c620002838262000260565b848454620001d2565b825550505050565b5f90565b620002a262000294565b620002af81848462000269565b505050565b5b81811015620002d657620002ca5f8262000298565b600181019050620002b5565b5050565b601f8211156200032557620002ef81620001a5565b620002fa84620001b7565b810160208510156200030a578190505b620003226200031985620001b7565b830182620002b4565b50505b505050565b5f82821c905092915050565b5f620003475f19846008026200032a565b1980831691505092915050565b5f62000361838362000336565b9150826002028217905092915050565b6200037c826200010d565b67ffffffffffffffff81111562000398576200039762000117565b5b620003a4825462000171565b620003b1828285620002da565b5f60209050601f831160018114620003e7575f8415620003d2578287015190505b620003de858262000354565b8655506200044d565b601f198416620003f786620001a5565b5f5b828110156200042057848901518255600182019150602085019450602081019050620003f9565b868310156200044057848901516200043c601f89168262000336565b8355505b6001600288020188555050505b505050505050565b61484a80620004635f395ff3fe60806040526004361061019b575f3560e01c806370a08231116100eb578063c78f19f911610089578063ce606ee011610063578063ce606ee0146105f1578063da472a0f1461061b578063e0391b0914610643578063e985e9c51461066d5761019b565b8063c78f19f914610561578063c87b56dd1461058b578063ca6158cb146105c75761019b565b8063a209081e116100c5578063a209081e146104ad578063a22cb465146104e9578063ae677aa314610511578063b88d4fde146105395761019b565b806370a082311461041f57806394205c2f1461045b57806395d89b41146104835761019b565b8063209c952311610158578063402f0fa011610132578063402f0fa01461034357806342842e0e1461037f5780634e720189146103a75780636352211e146103e35761019b565b8063209c9523146102d557806323b872dd146102ff5780632d296bf1146103275761019b565b806301ffc9a71461019f5780630335b5af146101db57806306fdde0314610217578063081812fc14610241578063095ea7b31461027d5780631b3efe85146102a5575b5f80fd5b3480156101aa575f80fd5b506101c560048036038101906101c09190612f9b565b6106a9565b6040516101d29190612fe0565b60405180910390f35b3480156101e6575f80fd5b5061020160048036038101906101fc9190613053565b610709565b60405161020e91906131e6565b60405180910390f35b348015610222575f80fd5b5061022b610a1d565b6040516102389190613290565b60405180910390f35b34801561024c575f80fd5b50610267600480360381019061026291906132da565b610aac565b6040516102749190613314565b60405180910390f35b348015610288575f80fd5b506102a3600480360381019061029e919061332d565b610aee565b005b6102bf60048036038101906102ba9190613497565b610c04565b6040516102cc9190613500565b60405180910390f35b3480156102e0575f80fd5b506102e9610ec4565b6040516102f69190613500565b60405180910390f35b34801561030a575f80fd5b5061032560048036038101906103209190613519565b610eca565b005b610341600480360381019061033c91906132da565b610f2a565b005b34801561034e575f80fd5b5061036960048036038101906103649190613569565b61127a565b6040516103769190612fe0565b60405180910390f35b34801561038a575f80fd5b506103a560048036038101906103a09190613519565b61132c565b005b3480156103b2575f80fd5b506103cd60048036038101906103c891906132da565b61134b565b6040516103da9190613620565b60405180910390f35b3480156103ee575f80fd5b50610409600480360381019061040491906132da565b611458565b6040516104169190613314565b60405180910390f35b34801561042a575f80fd5b5061044560048036038101906104409190613053565b6114dc565b6040516104529190613500565b60405180910390f35b348015610466575f80fd5b50610481600480360381019061047c91906132da565b611590565b005b34801561048e575f80fd5b50610497611660565b6040516104a49190613290565b60405180910390f35b3480156104b8575f80fd5b506104d360048036038101906104ce91906132da565b6116f0565b6040516104e09190613500565b60405180910390f35b3480156104f4575f80fd5b5061050f600480360381019061050a9190613663565b61175d565b005b34801561051c575f80fd5b50610537600480360381019061053291906132da565b611773565b005b348015610544575f80fd5b5061055f600480360381019061055a919061373f565b611843565b005b34801561056c575f80fd5b506105756118a5565b6040516105829190613500565b60405180910390f35b348015610596575f80fd5b506105b160048036038101906105ac91906132da565b6118ab565b6040516105be9190613290565b60405180910390f35b3480156105d2575f80fd5b506105db6119b5565b6040516105e89190613500565b60405180910390f35b3480156105fc575f80fd5b506106056119bb565b60405161061291906137ce565b60405180910390f35b348015610626575f80fd5b50610641600480360381019061063c91906132da565b6119e0565b005b34801561064e575f80fd5b50610657611c3e565b60405161066491906131e6565b60405180910390f35b348015610678575f80fd5b50610693600480360381019061068e91906137e7565b611e70565b6040516106a09190612fe0565b60405180910390f35b5f634906490660e01b7bffffffffffffffffffffffffffffffffffffffffffffffffffffffff1916827bffffffffffffffffffffffffffffffffffffffffffffffffffffffff19161480610702575061070182611efe565b5b9050919050565b60605f80600190505b600b5481116107d4578373ffffffffffffffffffffffffffffffffffffffff16600c5f8381526020019081526020015f206003015f9054906101000a900473ffffffffffffffffffffffffffffffffffffffff1673ffffffffffffffffffffffffffffffffffffffff161480156107ad57505f1515600c5f8381526020019081526020015f2060030160149054906101000a900460ff161515145b156107c15781806107bd90613852565b9250505b80806107cc90613852565b915050610712565b505f8167ffffffffffffffff8111156107f0576107ef613373565b5b60405190808252806020026020018201604052801561082957816020015b610816612ed7565b81526020019060019003908161080e5790505b5090505f80600190505b600b548111610a11578573ffffffffffffffffffffffffffffffffffffffff16600c5f8381526020019081526020015f206003015f9054906101000a900473ffffffffffffffffffffffffffffffffffffffff1673ffffffffffffffffffffffffffffffffffffffff161480156108ce57505f1515600c5f8381526020019081526020015f2060030160149054906101000a900460ff161515145b156109fe57600c5f8281526020019081526020015f206040518060c00160405290815f820154815260200160018201548152602001600282015f9054906101000a900473ffffffffffffffffffffffffffffffffffffffff1673ffffffffffffffffffffffffffffffffffffffff1673ffffffffffffffffffffffffffffffffffffffff168152602001600382015f9054906101000a900473ffffffffffffffffffffffffffffffffffffffff1673ffffffffffffffffffffffffffffffffffffffff1673ffffffffffffffffffffffffffffffffffffffff1681526020016003820160149054906101000a900460ff161515151581526020016004820154815250508383815181106109e4576109e3613899565b5b602002602001018190525081806109fa90613852565b9250505b8080610a0990613852565b915050610833565b50819350505050919050565b60605f8054610a2b906138f3565b80601f0160208091040260200160405190810160405280929190818152602001828054610a57906138f3565b8015610aa25780601f10610a7957610100808354040283529160200191610aa2565b820191905f5260205f20905b815481529060010190602001808311610a8557829003601f168201915b5050505050905090565b5f610ab682611fdf565b60045f8381526020019081526020015f205f9054906101000a900473ffffffffffffffffffffffffffffffffffffffff169050919050565b5f610af882611458565b90508073ffffffffffffffffffffffffffffffffffffffff168373ffffffffffffffffffffffffffffffffffffffff1603610b68576040517f08c379a0000000000000000000000000000000000000000000000000000000008152600401610b5f90613993565b60405180910390fd5b8073ffffffffffffffffffffffffffffffffffffffff16610b8761202a565b73ffffffffffffffffffffffffffffffffffffffff161480610bb65750610bb581610bb061202a565b611e70565b5b610bf5576040517f08c379a0000000000000000000000000000000000000000000000000000000008152600401610bec90613a21565b60405180910390fd5b610bff8383612031565b505050565b5f610c0d6120e7565b6008543414610c51576040517f08c379a0000000000000000000000000000000000000000000000000000000008152600401610c4890613a89565b60405180910390fd5b5f8311610c93576040517f08c379a0000000000000000000000000000000000000000000000000000000008152600401610c8a90613af1565b60405180910390fd5b600b5f815480929190610ca590613852565b9190505550610cb633600b54612136565b610cc2600b5483612153565b6040518060c00160405280600b5481526020018481526020013373ffffffffffffffffffffffffffffffffffffffff1681526020013073ffffffffffffffffffffffffffffffffffffffff1681526020016001151581526020015f815250600c5f600b5481526020019081526020015f205f820151815f0155602082015181600101556040820151816002015f6101000a81548173ffffffffffffffffffffffffffffffffffffffff021916908373ffffffffffffffffffffffffffffffffffffffff1602179055506060820151816003015f6101000a81548173ffffffffffffffffffffffffffffffffffffffff021916908373ffffffffffffffffffffffffffffffffffffffff16021790555060808201518160030160146101000a81548160ff02191690831515021790555060a08201518160040155905050610e0b3330600b546121f5565b600a5f9054906101000a900473ffffffffffffffffffffffffffffffffffffffff1673ffffffffffffffffffffffffffffffffffffffff166108fc60085490811502906040515f60405180830381858888f19350505050158015610e71573d5f803e3d5ffd5b507f7775d6ac27837184534d17b6cdcdcc82f564fa44d02ec9e6a2efa2aee69fe581600b54338585604051610ea99493929190613b0f565b60405180910390a1600b549050610ebe6124e1565b92915050565b60095481565b610edb610ed561202a565b826124eb565b610f1a576040517f08c379a0000000000000000000000000000000000000000000000000000000008152600401610f1190613bc9565b60405180910390fd5b610f258383836121f5565b505050565b610f326120e7565b5f600c5f8381526020019081526020015f2090508060030160149054906101000a900460ff16610f97576040517f08c379a0000000000000000000000000000000000000000000000000000000008152600401610f8e90613c57565b60405180910390fd5b80600101543414610fdd576040517f08c379a0000000000000000000000000000000000000000000000000000000008152600401610fd490613cbf565b60405180910390fd5b3373ffffffffffffffffffffffffffffffffffffffff16816003015f9054906101000a900473ffffffffffffffffffffffffffffffffffffffff1673ffffffffffffffffffffffffffffffffffffffff160361106e576040517f08c379a000000000000000000000000000000000000000000000000000000000815260040161106590613d27565b60405180910390fd5b670de0b6b3a76400003410611162575f6009543461108c9190613d45565b9050816002015f9054906101000a900473ffffffffffffffffffffffffffffffffffffffff1673ffffffffffffffffffffffffffffffffffffffff166108fc8290811502906040515f60405180830381858888f193505050501580156110f4573d5f803e3d5ffd5b50600a5f9054906101000a900473ffffffffffffffffffffffffffffffffffffffff1673ffffffffffffffffffffffffffffffffffffffff166108fc60095490811502906040515f60405180830381858888f1935050505015801561115b573d5f803e3d5ffd5b50506111ca565b806002015f9054906101000a900473ffffffffffffffffffffffffffffffffffffffff1673ffffffffffffffffffffffffffffffffffffffff166108fc3490811502906040515f60405180830381858888f193505050501580156111c8573d5f803e3d5ffd5b505b33816003015f6101000a81548173ffffffffffffffffffffffffffffffffffffffff021916908373ffffffffffffffffffffffffffffffffffffffff1602179055505f8160030160146101000a81548160ff0219169083151502179055506112333033846121f5565b7f1cb6dd09e77cf64c9d88c8e0cf8555ebff062045f2068f22efcbc60905730e7182333460405161126693929190613d78565b60405180910390a1506112776124e1565b50565b5f808311801561128c5750600b548311155b6112cb576040517f08c379a00000000000000000000000000000000000000000000000000000000081526004016112c290613df7565b60405180910390fd5b600d5f8481526020019081526020015f205f8373ffffffffffffffffffffffffffffffffffffffff1673ffffffffffffffffffffffffffffffffffffffff1681526020019081526020015f205f9054906101000a900460ff16905092915050565b61134683838360405180602001604052805f815250611843565b505050565b611353612ed7565b600c5f8381526020019081526020015f206040518060c00160405290815f820154815260200160018201548152602001600282015f9054906101000a900473ffffffffffffffffffffffffffffffffffffffff1673ffffffffffffffffffffffffffffffffffffffff1673ffffffffffffffffffffffffffffffffffffffff168152602001600382015f9054906101000a900473ffffffffffffffffffffffffffffffffffffffff1673ffffffffffffffffffffffffffffffffffffffff1673ffffffffffffffffffffffffffffffffffffffff1681526020016003820160149054906101000a900460ff161515151581526020016004820154815250509050919050565b5f806114638361257f565b90505f73ffffffffffffffffffffffffffffffffffffffff168173ffffffffffffffffffffffffffffffffffffffff16036114d3576040517f08c379a00000000000000000000000000000000000000000000000000000000081526004016114ca90613e5f565b60405180910390fd5b80915050919050565b5f8073ffffffffffffffffffffffffffffffffffffffff168273ffffffffffffffffffffffffffffffffffffffff160361154b576040517f08c379a000000000000000000000000000000000000000000000000000000000815260040161154290613eed565b60405180910390fd5b60035f8373ffffffffffffffffffffffffffffffffffffffff1673ffffffffffffffffffffffffffffffffffffffff1681526020019081526020015f20549050919050565b600a5f9054906101000a900473ffffffffffffffffffffffffffffffffffffffff1673ffffffffffffffffffffffffffffffffffffffff163373ffffffffffffffffffffffffffffffffffffffff161461161f576040517f08c379a000000000000000000000000000000000000000000000000000000000815260040161161690613f7b565b60405180910390fd5b806009819055507f63c79a46548caf9f1ff305658ced352de6412c53657d47ad8a13e5b53fefb596816040516116559190613500565b60405180910390a150565b60606001805461166f906138f3565b80601f016020809104026020016040519081016040528092919081815260200182805461169b906138f3565b80156116e65780601f106116bd576101008083540402835291602001916116e6565b820191905f5260205f20905b8154815290600101906020018083116116c957829003601f168201915b5050505050905090565b5f80821180156117025750600b548211155b611741576040517f08c379a000000000000000000000000000000000000000000000000000000000815260040161173890613df7565b60405180910390fd5b600c5f8381526020019081526020015f20600401549050919050565b61176f61176861202a565b83836125b8565b5050565b600a5f9054906101000a900473ffffffffffffffffffffffffffffffffffffffff1673ffffffffffffffffffffffffffffffffffffffff163373ffffffffffffffffffffffffffffffffffffffff1614611802576040517f08c379a00000000000000000000000000000000000000000000000000000000081526004016117f990613f7b565b60405180910390fd5b806008819055507f661c8d2e494b21e778d6b19ffb42ca00ee63062be7f9eb28af0850e01a9cf214816040516118389190613500565b60405180910390a150565b61185461184e61202a565b836124eb565b611893576040517f08c379a000000000000000000000000000000000000000000000000000000000815260040161188a90613bc9565b60405180910390fd5b61189f8484848461271f565b50505050565b60085481565b60606118b682611fdf565b5f60065f8481526020019081526020015f2080546118d3906138f3565b80601f01602080910402602001604051908101604052809291908181526020018280546118ff906138f3565b801561194a5780601f106119215761010080835404028352916020019161194a565b820191905f5260205f20905b81548152906001019060200180831161192d57829003601f168201915b505050505090505f61195a61277b565b90505f81510361196e5781925050506119b0565b5f825111156119a257808260405160200161198a929190613fd3565b604051602081830303815290604052925050506119b0565b6119ab84612791565b925050505b919050565b600b5481565b600a5f9054906101000a900473ffffffffffffffffffffffffffffffffffffffff1681565b5f811180156119f15750600b548111155b611a30576040517f08c379a0000000000000000000000000000000000000000000000000000000008152600401611a2790614040565b60405180910390fd5b5f600c5f8381526020019081526020015f209050600d5f8381526020019081526020015f205f3373ffffffffffffffffffffffffffffffffffffffff1673ffffffffffffffffffffffffffffffffffffffff1681526020019081526020015f205f9054906101000a900460ff1615611b2357806004015f815480929190611ab69061405e565b91905055505f600d5f8481526020019081526020015f205f3373ffffffffffffffffffffffffffffffffffffffff1673ffffffffffffffffffffffffffffffffffffffff1681526020019081526020015f205f6101000a81548160ff021916908315150217905550611ba1565b806004015f815480929190611b3790613852565b91905055506001600d5f8481526020019081526020015f205f3373ffffffffffffffffffffffffffffffffffffffff1673ffffffffffffffffffffffffffffffffffffffff1681526020019081526020015f205f6101000a81548160ff0219169083151502179055505b7f5bf27ea2986d060648b1598de175036f1bbf19e31fb155c438624f84d32a07668233600d5f8681526020019081526020015f205f3373ffffffffffffffffffffffffffffffffffffffff1673ffffffffffffffffffffffffffffffffffffffff1681526020019081526020015f205f9054906101000a900460ff168460040154604051611c329493929190614085565b60405180910390a15050565b60605f80600190505b600b548111611c9957600c5f8281526020019081526020015f2060030160149054906101000a900460ff1615611c86578180611c8290613852565b9250505b8080611c9190613852565b915050611c47565b505f8167ffffffffffffffff811115611cb557611cb4613373565b5b604051908082528060200260200182016040528015611cee57816020015b611cdb612ed7565b815260200190600190039081611cd35790505b5090505f80600190505b600b548111611e6657600c5f8281526020019081526020015f2060030160149054906101000a900460ff1615611e5357600c5f8281526020019081526020015f206040518060c00160405290815f820154815260200160018201548152602001600282015f9054906101000a900473ffffffffffffffffffffffffffffffffffffffff1673ffffffffffffffffffffffffffffffffffffffff1673ffffffffffffffffffffffffffffffffffffffff168152602001600382015f9054906101000a900473ffffffffffffffffffffffffffffffffffffffff1673ffffffffffffffffffffffffffffffffffffffff1673ffffffffffffffffffffffffffffffffffffffff1681526020016003820160149054906101000a900460ff16151515158152602001600482015481525050838381518110611e3957611e38613899565b5b60200260200101819052508180611e4f90613852565b9250505b8080611e5e90613852565b915050611cf8565b5081935050505090565b5f60055f8473ffffffffffffffffffffffffffffffffffffffff1673ffffffffffffffffffffffffffffffffffffffff1681526020019081526020015f205f8373ffffffffffffffffffffffffffffffffffffffff1673ffffffffffffffffffffffffffffffffffffffff1681526020019081526020015f205f9054906101000a900460ff16905092915050565b5f7f80ac58cd000000000000000000000000000000000000000000000000000000007bffffffffffffffffffffffffffffffffffffffffffffffffffffffff1916827bffffffffffffffffffffffffffffffffffffffffffffffffffffffff19161480611fc857507f5b5e139f000000000000000000000000000000000000000000000000000000007bffffffffffffffffffffffffffffffffffffffffffffffffffffffff1916827bffffffffffffffffffffffffffffffffffffffffffffffffffffffff1916145b80611fd85750611fd7826127f6565b5b9050919050565b611fe88161285f565b612027576040517f08c379a000000000000000000000000000000000000000000000000000000000815260040161201e90613e5f565b60405180910390fd5b50565b5f33905090565b8160045f8381526020019081526020015f205f6101000a81548173ffffffffffffffffffffffffffffffffffffffff021916908373ffffffffffffffffffffffffffffffffffffffff160217905550808273ffffffffffffffffffffffffffffffffffffffff166120a183611458565b73ffffffffffffffffffffffffffffffffffffffff167f8c5be1e5ebec7d5bd14f71427d1e84f3dd0314c0f7b2291e5b200ac8c7c3b92560405160405180910390a45050565b60026007540361212c576040517f08c379a000000000000000000000000000000000000000000000000000000000815260040161212390614112565b60405180910390fd5b6002600781905550565b61214f828260405180602001604052805f81525061289f565b5050565b61215c8261285f565b61219b576040517f08c379a0000000000000000000000000000000000000000000000000000000008152600401612192906141a0565b60405180910390fd5b8060065f8481526020019081526020015f2090816121b9919061435b565b507ff8e1a15aba9398e019f0b49df1a4fde98ee17ae345cb5f6b5e2c27f5033e8ce7826040516121e99190613500565b60405180910390a15050565b8273ffffffffffffffffffffffffffffffffffffffff1661221582611458565b73ffffffffffffffffffffffffffffffffffffffff161461226b576040517f08c379a00000000000000000000000000000000000000000000000000000000081526004016122629061449a565b60405180910390fd5b5f73ffffffffffffffffffffffffffffffffffffffff168273ffffffffffffffffffffffffffffffffffffffff16036122d9576040517f08c379a00000000000000000000000000000000000000000000000000000000081526004016122d090614528565b60405180910390fd5b6122e683838360016128f9565b8273ffffffffffffffffffffffffffffffffffffffff1661230682611458565b73ffffffffffffffffffffffffffffffffffffffff161461235c576040517f08c379a00000000000000000000000000000000000000000000000000000000081526004016123539061449a565b60405180910390fd5b60045f8281526020019081526020015f205f6101000a81549073ffffffffffffffffffffffffffffffffffffffff0219169055600160035f8573ffffffffffffffffffffffffffffffffffffffff1673ffffffffffffffffffffffffffffffffffffffff1681526020019081526020015f205f8282540392505081905550600160035f8473ffffffffffffffffffffffffffffffffffffffff1673ffffffffffffffffffffffffffffffffffffffff1681526020019081526020015f205f82825401925050819055508160025f8381526020019081526020015f205f6101000a81548173ffffffffffffffffffffffffffffffffffffffff021916908373ffffffffffffffffffffffffffffffffffffffff160217905550808273ffffffffffffffffffffffffffffffffffffffff168473ffffffffffffffffffffffffffffffffffffffff167fddf252ad1be2c89b69c2b068fc378daa952ba7f163c4a11628f55a4df523b3ef60405160405180910390a46124dc83838360016128ff565b505050565b6001600781905550565b5f806124f683611458565b90508073ffffffffffffffffffffffffffffffffffffffff168473ffffffffffffffffffffffffffffffffffffffff16148061253857506125378185611e70565b5b8061257657508373ffffffffffffffffffffffffffffffffffffffff1661255e84610aac565b73ffffffffffffffffffffffffffffffffffffffff16145b91505092915050565b5f60025f8381526020019081526020015f205f9054906101000a900473ffffffffffffffffffffffffffffffffffffffff169050919050565b8173ffffffffffffffffffffffffffffffffffffffff168373ffffffffffffffffffffffffffffffffffffffff1603612626576040517f08c379a000000000000000000000000000000000000000000000000000000000815260040161261d90614590565b60405180910390fd5b8060055f8573ffffffffffffffffffffffffffffffffffffffff1673ffffffffffffffffffffffffffffffffffffffff1681526020019081526020015f205f8473ffffffffffffffffffffffffffffffffffffffff1673ffffffffffffffffffffffffffffffffffffffff1681526020019081526020015f205f6101000a81548160ff0219169083151502179055508173ffffffffffffffffffffffffffffffffffffffff168373ffffffffffffffffffffffffffffffffffffffff167f17307eab39ab6107e8899845ad3d59bd9653f200f220920489ca2b5937696c31836040516127129190612fe0565b60405180910390a3505050565b61272a8484846121f5565b61273684848484612905565b612775576040517f08c379a000000000000000000000000000000000000000000000000000000000815260040161276c9061461e565b60405180910390fd5b50505050565b606060405180602001604052805f815250905090565b606061279c82611fdf565b5f6127a561277b565b90505f8151116127c35760405180602001604052805f8152506127ee565b806127cd84612a87565b6040516020016127de929190613fd3565b6040516020818303038152906040525b915050919050565b5f7f01ffc9a7000000000000000000000000000000000000000000000000000000007bffffffffffffffffffffffffffffffffffffffffffffffffffffffff1916827bffffffffffffffffffffffffffffffffffffffffffffffffffffffff1916149050919050565b5f8073ffffffffffffffffffffffffffffffffffffffff166128808361257f565b73ffffffffffffffffffffffffffffffffffffffff1614159050919050565b6128a98383612b51565b6128b55f848484612905565b6128f4576040517f08c379a00000000000000000000000000000000000000000000000000000000081526004016128eb9061461e565b60405180910390fd5b505050565b50505050565b50505050565b5f6129258473ffffffffffffffffffffffffffffffffffffffff16612d64565b15612a7a578373ffffffffffffffffffffffffffffffffffffffff1663150b7a0261294e61202a565b8786866040518563ffffffff1660e01b8152600401612970949392919061468e565b6020604051808303815f875af19250505080156129ab57506040513d601f19601f820116820180604052508101906129a891906146ec565b60015b612a2a573d805f81146129d9576040519150601f19603f3d011682016040523d82523d5f602084013e6129de565b606091505b505f815103612a22576040517f08c379a0000000000000000000000000000000000000000000000000000000008152600401612a199061461e565b60405180910390fd5b805181602001fd5b63150b7a0260e01b7bffffffffffffffffffffffffffffffffffffffffffffffffffffffff1916817bffffffffffffffffffffffffffffffffffffffffffffffffffffffff191614915050612a7f565b600190505b949350505050565b60605f6001612a9584612d86565b0190505f8167ffffffffffffffff811115612ab357612ab2613373565b5b6040519080825280601f01601f191660200182016040528015612ae55781602001600182028036833780820191505090505b5090505f82602001820190505b600115612b46578080600190039150507f3031323334353637383961626364656600000000000000000000000000000000600a86061a8153600a8581612b3b57612b3a614717565b5b0494505f8503612af2575b819350505050919050565b5f73ffffffffffffffffffffffffffffffffffffffff168273ffffffffffffffffffffffffffffffffffffffff1603612bbf576040517f08c379a0000000000000000000000000000000000000000000000000000000008152600401612bb69061478e565b60405180910390fd5b612bc88161285f565b15612c08576040517f08c379a0000000000000000000000000000000000000000000000000000000008152600401612bff906147f6565b60405180910390fd5b612c155f838360016128f9565b612c1e8161285f565b15612c5e576040517f08c379a0000000000000000000000000000000000000000000000000000000008152600401612c55906147f6565b60405180910390fd5b600160035f8473ffffffffffffffffffffffffffffffffffffffff1673ffffffffffffffffffffffffffffffffffffffff1681526020019081526020015f205f82825401925050819055508160025f8381526020019081526020015f205f6101000a81548173ffffffffffffffffffffffffffffffffffffffff021916908373ffffffffffffffffffffffffffffffffffffffff160217905550808273ffffffffffffffffffffffffffffffffffffffff165f73ffffffffffffffffffffffffffffffffffffffff167fddf252ad1be2c89b69c2b068fc378daa952ba7f163c4a11628f55a4df523b3ef60405160405180910390a4612d605f838360016128ff565b5050565b5f808273ffffffffffffffffffffffffffffffffffffffff163b119050919050565b5f805f90507a184f03e93ff9f4daa797ed6e38ed64bf6a1f0100000000000000008310612de2577a184f03e93ff9f4daa797ed6e38ed64bf6a1f0100000000000000008381612dd857612dd7614717565b5b0492506040810190505b6d04ee2d6d415b85acef81000000008310612e1f576d04ee2d6d415b85acef81000000008381612e1557612e14614717565b5b0492506020810190505b662386f26fc100008310612e4e57662386f26fc100008381612e4457612e43614717565b5b0492506010810190505b6305f5e1008310612e77576305f5e1008381612e6d57612e6c614717565b5b0492506008810190505b6127108310612e9c576127108381612e9257612e91614717565b5b0492506004810190505b60648310612ebf5760648381612eb557612eb4614717565b5b0492506002810190505b600a8310612ece576001810190505b80915050919050565b6040518060c001604052805f81526020015f81526020015f73ffffffffffffffffffffffffffffffffffffffff1681526020015f73ffffffffffffffffffffffffffffffffffffffff1681526020015f151581526020015f81525090565b5f604051905090565b5f80fd5b5f80fd5b5f7fffffffff0000000000000000000000000000000000000000000000000000000082169050919050565b612f7a81612f46565b8114612f84575f80fd5b50565b5f81359050612f9581612f71565b92915050565b5f60208284031215612fb057612faf612f3e565b5b5f612fbd84828501612f87565b91505092915050565b5f8115159050919050565b612fda81612fc6565b82525050565b5f602082019050612ff35f830184612fd1565b92915050565b5f73ffffffffffffffffffffffffffffffffffffffff82169050919050565b5f61302282612ff9565b9050919050565b61303281613018565b811461303c575f80fd5b50565b5f8135905061304d81613029565b92915050565b5f6020828403121561306857613067612f3e565b5b5f6130758482850161303f565b91505092915050565b5f81519050919050565b5f82825260208201905092915050565b5f819050602082019050919050565b5f819050919050565b6130b9816130a7565b82525050565b5f6130c982612ff9565b9050919050565b6130d9816130bf565b82525050565b6130e881612fc6565b82525050565b60c082015f8201516131025f8501826130b0565b50602082015161311560208501826130b0565b50604082015161312860408501826130d0565b50606082015161313b60608501826130d0565b50608082015161314e60808501826130df565b5060a082015161316160a08501826130b0565b50505050565b5f61317283836130ee565b60c08301905092915050565b5f602082019050919050565b5f6131948261307e565b61319e8185613088565b93506131a983613098565b805f5b838110156131d95781516131c08882613167565b97506131cb8361317e565b9250506001810190506131ac565b5085935050505092915050565b5f6020820190508181035f8301526131fe818461318a565b905092915050565b5f81519050919050565b5f82825260208201905092915050565b5f5b8381101561323d578082015181840152602081019050613222565b5f8484015250505050565b5f601f19601f8301169050919050565b5f61326282613206565b61326c8185613210565b935061327c818560208601613220565b61328581613248565b840191505092915050565b5f6020820190508181035f8301526132a88184613258565b905092915050565b6132b9816130a7565b81146132c3575f80fd5b50565b5f813590506132d4816132b0565b92915050565b5f602082840312156132ef576132ee612f3e565b5b5f6132fc848285016132c6565b91505092915050565b61330e81613018565b82525050565b5f6020820190506133275f830184613305565b92915050565b5f806040838503121561334357613342612f3e565b5b5f6133508582860161303f565b9250506020613361858286016132c6565b9150509250929050565b5f80fd5b5f80fd5b7f4e487b71000000000000000000000000000000000000000000000000000000005f52604160045260245ffd5b6133a982613248565b810181811067ffffffffffffffff821117156133c8576133c7613373565b5b80604052505050565b5f6133da612f35565b90506133e682826133a0565b919050565b5f67ffffffffffffffff82111561340557613404613373565b5b61340e82613248565b9050602081019050919050565b828183375f83830152505050565b5f61343b613436846133eb565b6133d1565b9050828152602081018484840111156134575761345661336f565b5b61346284828561341b565b509392505050565b5f82601f83011261347e5761347d61336b565b5b813561348e848260208601613429565b91505092915050565b5f80604083850312156134ad576134ac612f3e565b5b5f6134ba858286016132c6565b925050602083013567ffffffffffffffff8111156134db576134da612f42565b5b6134e78582860161346a565b9150509250929050565b6134fa816130a7565b82525050565b5f6020820190506135135f8301846134f1565b92915050565b5f805f606084860312156135305761352f612f3e565b5b5f61353d8682870161303f565b935050602061354e8682870161303f565b925050604061355f868287016132c6565b9150509250925092565b5f806040838503121561357f5761357e612f3e565b5b5f61358c858286016132c6565b925050602061359d8582860161303f565b9150509250929050565b60c082015f8201516135bb5f8501826130b0565b5060208201516135ce60208501826130b0565b5060408201516135e160408501826130d0565b5060608201516135f460608501826130d0565b50608082015161360760808501826130df565b5060a082015161361a60a08501826130b0565b50505050565b5f60c0820190506136335f8301846135a7565b92915050565b61364281612fc6565b811461364c575f80fd5b50565b5f8135905061365d81613639565b92915050565b5f806040838503121561367957613678612f3e565b5b5f6136868582860161303f565b92505060206136978582860161364f565b9150509250929050565b5f67ffffffffffffffff8211156136bb576136ba613373565b5b6136c482613248565b9050602081019050919050565b5f6136e36136de846136a1565b6133d1565b9050828152602081018484840111156136ff576136fe61336f565b5b61370a84828561341b565b509392505050565b5f82601f8301126137265761372561336b565b5b81356137368482602086016136d1565b91505092915050565b5f805f806080858703121561375757613756612f3e565b5b5f6137648782880161303f565b94505060206137758782880161303f565b9350506040613786878288016132c6565b925050606085013567ffffffffffffffff8111156137a7576137a6612f42565b5b6137b387828801613712565b91505092959194509250565b6137c8816130bf565b82525050565b5f6020820190506137e15f8301846137bf565b92915050565b5f80604083850312156137fd576137fc612f3e565b5b5f61380a8582860161303f565b925050602061381b8582860161303f565b9150509250929050565b7f4e487b71000000000000000000000000000000000000000000000000000000005f52601160045260245ffd5b5f61385c826130a7565b91507fffffffffffffffffffffffffffffffffffffffffffffffffffffffffffffffff820361388e5761388d613825565b5b600182019050919050565b7f4e487b71000000000000000000000000000000000000000000000000000000005f52603260045260245ffd5b7f4e487b71000000000000000000000000000000000000000000000000000000005f52602260045260245ffd5b5f600282049050600182168061390a57607f821691505b60208210810361391d5761391c6138c6565b5b50919050565b7f4552433732313a20617070726f76616c20746f2063757272656e74206f776e655f8201527f7200000000000000000000000000000000000000000000000000000000000000602082015250565b5f61397d602183613210565b915061398882613923565b604082019050919050565b5f6020820190508181035f8301526139aa81613971565b9050919050565b7f4552433732313a20617070726f76652063616c6c6572206973206e6f7420746f5f8201527f6b656e206f776e6572206f7220617070726f76656420666f7220616c6c000000602082015250565b5f613a0b603d83613210565b9150613a16826139b1565b604082019050919050565b5f6020820190508181035f830152613a38816139ff565b9050919050565b7f50617920612070726f706572206c697374696e672070726963652100000000005f82015250565b5f613a73601b83613210565b9150613a7e82613a3f565b602082019050919050565b5f6020820190508181035f830152613aa081613a67565b9050919050565b7f53656e6420612070726f706572207072696365000000000000000000000000005f82015250565b5f613adb601383613210565b9150613ae682613aa7565b602082019050919050565b5f6020820190508181035f830152613b0881613acf565b9050919050565b5f608082019050613b225f8301876134f1565b613b2f6020830186613305565b613b3c60408301856134f1565b8181036060830152613b4e8184613258565b905095945050505050565b7f4552433732313a2063616c6c6572206973206e6f7420746f6b656e206f776e655f8201527f72206f7220617070726f76656400000000000000000000000000000000000000602082015250565b5f613bb3602d83613210565b9150613bbe82613b59565b604082019050919050565b5f6020820190508181035f830152613be081613ba7565b9050919050565b7f5468697320746f6b656e206973206e6f74206c697374656420666f722073616c5f8201527f6521000000000000000000000000000000000000000000000000000000000000602082015250565b5f613c41602283613210565b9150613c4c82613be7565b604082019050919050565b5f6020820190508181035f830152613c6e81613c35565b9050919050565b7f506c656173652070617920612070726f706572207072696365210000000000005f82015250565b5f613ca9601a83613210565b9150613cb482613c75565b602082019050919050565b5f6020820190508181035f830152613cd681613c9d565b9050919050565b7f596f7520616c7265616479206f776e2074686973206e667421000000000000005f82015250565b5f613d11601983613210565b9150613d1c82613cdd565b602082019050919050565b5f6020820190508181035f830152613d3e81613d05565b9050919050565b5f613d4f826130a7565b9150613d5a836130a7565b9250828203905081811115613d7257613d71613825565b5b92915050565b5f606082019050613d8b5f8301866134f1565b613d986020830185613305565b613da560408301846134f1565b949350505050565b7f496e76616c6964204e46542049440000000000000000000000000000000000005f82015250565b5f613de1600e83613210565b9150613dec82613dad565b602082019050919050565b5f6020820190508181035f830152613e0e81613dd5565b9050919050565b7f4552433732313a20696e76616c696420746f6b656e20494400000000000000005f82015250565b5f613e49601883613210565b9150613e5482613e15565b602082019050919050565b5f6020820190508181035f830152613e7681613e3d565b9050919050565b7f4552433732313a2061646472657373207a65726f206973206e6f7420612076615f8201527f6c6964206f776e65720000000000000000000000000000000000000000000000602082015250565b5f613ed7602983613210565b9150613ee282613e7d565b604082019050919050565b5f6020820190508181035f830152613f0481613ecb565b9050919050565b7f596f7520617265206e6f742074686520636f6e7472616374206f776e65722e205f8201527f596f752063616e6e6f74206d616b65206368616e676573210000000000000000602082015250565b5f613f65603883613210565b9150613f7082613f0b565b604082019050919050565b5f6020820190508181035f830152613f9281613f59565b9050919050565b5f81905092915050565b5f613fad82613206565b613fb78185613f99565b9350613fc7818560208601613220565b80840191505092915050565b5f613fde8285613fa3565b9150613fea8284613fa3565b91508190509392505050565b7f496e76616c6964204e46542049642e00000000000000000000000000000000005f82015250565b5f61402a600f83613210565b915061403582613ff6565b602082019050919050565b5f6020820190508181035f8301526140578161401e565b9050919050565b5f614068826130a7565b91505f820361407a57614079613825565b5b600182039050919050565b5f6080820190506140985f8301876134f1565b6140a56020830186613305565b6140b26040830185612fd1565b6140bf60608301846134f1565b95945050505050565b7f5265656e7472616e637947756172643a207265656e7472616e742063616c6c005f82015250565b5f6140fc601f83613210565b9150614107826140c8565b602082019050919050565b5f6020820190508181035f830152614129816140f0565b9050919050565b7f45524337323155524953746f726167653a2055524920736574206f66206e6f6e5f8201527f6578697374656e7420746f6b656e000000000000000000000000000000000000602082015250565b5f61418a602e83613210565b915061419582614130565b604082019050919050565b5f6020820190508181035f8301526141b78161417e565b9050919050565b5f819050815f5260205f209050919050565b5f6020601f8301049050919050565b5f82821b905092915050565b5f6008830261421a7fffffffffffffffffffffffffffffffffffffffffffffffffffffffffffffffff826141df565b61422486836141df565b95508019841693508086168417925050509392505050565b5f819050919050565b5f61425f61425a614255846130a7565b61423c565b6130a7565b9050919050565b5f819050919050565b61427883614245565b61428c61428482614266565b8484546141eb565b825550505050565b5f90565b6142a0614294565b6142ab81848461426f565b505050565b5b818110156142ce576142c35f82614298565b6001810190506142b1565b5050565b601f821115614313576142e4816141be565b6142ed846141d0565b810160208510156142fc578190505b614310614308856141d0565b8301826142b0565b50505b505050565b5f82821c905092915050565b5f6143335f1984600802614318565b1980831691505092915050565b5f61434b8383614324565b9150826002028217905092915050565b61436482613206565b67ffffffffffffffff81111561437d5761437c613373565b5b61438782546138f3565b6143928282856142d2565b5f60209050601f8311600181146143c3575f84156143b1578287015190505b6143bb8582614340565b865550614422565b601f1984166143d1866141be565b5f5b828110156143f8578489015182556001820191506020850194506020810190506143d3565b868310156144155784890151614411601f891682614324565b8355505b6001600288020188555050505b505050505050565b7f4552433732313a207472616e736665722066726f6d20696e636f7272656374205f8201527f6f776e6572000000000000000000000000000000000000000000000000000000602082015250565b5f614484602583613210565b915061448f8261442a565b604082019050919050565b5f6020820190508181035f8301526144b181614478565b9050919050565b7f4552433732313a207472616e7366657220746f20746865207a65726f206164645f8201527f7265737300000000000000000000000000000000000000000000000000000000602082015250565b5f614512602483613210565b915061451d826144b8565b604082019050919050565b5f6020820190508181035f83015261453f81614506565b9050919050565b7f4552433732313a20617070726f766520746f2063616c6c6572000000000000005f82015250565b5f61457a601983613210565b915061458582614546565b602082019050919050565b5f6020820190508181035f8301526145a78161456e565b9050919050565b7f4552433732313a207472616e7366657220746f206e6f6e2045524337323152655f8201527f63656976657220696d706c656d656e7465720000000000000000000000000000602082015250565b5f614608603283613210565b9150614613826145ae565b604082019050919050565b5f6020820190508181035f830152614635816145fc565b9050919050565b5f81519050919050565b5f82825260208201905092915050565b5f6146608261463c565b61466a8185614646565b935061467a818560208601613220565b61468381613248565b840191505092915050565b5f6080820190506146a15f830187613305565b6146ae6020830186613305565b6146bb60408301856134f1565b81810360608301526146cd8184614656565b905095945050505050565b5f815190506146e681612f71565b92915050565b5f6020828403121561470157614700612f3e565b5b5f61470e848285016146d8565b91505092915050565b7f4e487b71000000000000000000000000000000000000000000000000000000005f52601260045260245ffd5b7f4552433732313a206d696e7420746f20746865207a65726f20616464726573735f82015250565b5f614778602083613210565b915061478382614744565b602082019050919050565b5f6020820190508181035f8301526147a58161476c565b9050919050565b7f4552433732313a20746f6b656e20616c7265616479206d696e746564000000005f82015250565b5f6147e0601c83613210565b91506147eb826147ac565b602082019050919050565b5f6020820190508181035f83015261480d816147d4565b905091905056fea26469706673582212209f718558cbec21cd0e277e45d639680c437d8240612ae2ff32b38369954cfaed64736f6c63430008140033",
  "immutableReferences": {},
  "source": "// SPDX-License-Identifier: MIT\r\npragma solidity 0.8.20;\r\n\r\nimport \"@openzeppelin/contracts/token/ERC721/extensions/ERC721URIStorage.sol\";\r\nimport \"@openzeppelin/contracts/security/ReentrancyGuard.sol\";\r\n\r\ncontract Marketplace is ERC721URIStorage, ReentrancyGuard  {\r\n    \r\n    // Event definitions\r\n    event TokenCreated(uint256 tokenId, address seller, uint256 price, string uri);\r\n    event TokenPurchased(uint256 tokenId, address buyer, uint256 price);\r\n    event ListingPriceUpdated(uint256 newPrice);\r\n    event PremiumFeeUpdated(uint256 newFee);\r\n    event NFTLikeToggled(uint256 tokenId, address user, bool isLiked, uint256 newLikeCount);\r\n\r\n    //state variables\r\n    uint256 public listingPrice = 0.01 ether;\r\n    uint256 public premiumFee = 0.05 ether;\r\n    address payable public contractOwner;\r\n    uint256 public itemId;\r\n\r\n    //nft Token structure\r\n    struct nftToken {\r\n        uint256 tokenId;\r\n        uint256 price;\r\n        address payable seller;\r\n        address payable owner;\r\n        bool Listed;\r\n        uint256 likes;\r\n    }\r\n\r\n    //Mapping itemId to tokenStruct\r\n    mapping(uint256 => nftToken) private idTokenMapping;\r\n    //Mapping itemId to (userAddress => hasLiked)\r\n    mapping(uint256 => mapping(address => bool)) private hasLiked;\r\n\r\n    constructor() ERC721(\"Marketplace\", \"MKTP\") {\r\n        contractOwner = payable(msg.sender);\r\n        itemId = 0;\r\n    }\r\n\r\n    modifier onlyOwner() {\r\n        require(msg.sender == contractOwner, \"You are not the contract owner. You cannot make changes!\");\r\n        _;\r\n    }\r\n\r\n    function createToken(uint256 _price, string memory uri) public payable nonReentrant returns (uint256) {\r\n        require(msg.value == listingPrice, \"Pay a proper listing price!\");\r\n        require(_price > 0, \"Send a proper price\");\r\n\r\n        itemId++;\r\n        _safeMint(msg.sender, itemId);\r\n        _setTokenURI(itemId, uri);\r\n\r\n        idTokenMapping[itemId] = nftToken(\r\n            itemId,\r\n            _price,\r\n            payable(msg.sender),\r\n            payable(address(this)),\r\n            true,\r\n            0\r\n        );\r\n\r\n        _transfer(msg.sender, address(this), itemId);\r\n        contractOwner.transfer(listingPrice);\r\n\r\n        emit TokenCreated(itemId, msg.sender, _price, uri);\r\n\r\n        return itemId;\r\n    }\r\n\r\n    function buyToken(uint256 _itemId) public payable nonReentrant {\r\n        nftToken storage token = idTokenMapping[_itemId];\r\n\r\n        require(token.Listed, \"This token is not listed for sale!\");\r\n        require(msg.value == token.price, \"Please pay a proper price!\");\r\n        require(token.owner != msg.sender, \"You already own this nft!\");\r\n\r\n        if (msg.value >= 1 ether) {\r\n            uint256 saleProceeds = msg.value - premiumFee;\r\n            token.seller.transfer(saleProceeds);\r\n            contractOwner.transfer(premiumFee);\r\n        } else {\r\n            token.seller.transfer(msg.value);\r\n        }\r\n        \r\n        token.owner = payable(msg.sender);\r\n        token.Listed = false;\r\n\r\n        _transfer(address(this), msg.sender, _itemId);\r\n\r\n        emit TokenPurchased(_itemId, msg.sender, msg.value);\r\n    }\r\n\r\n    function updateListingPrice(uint256 _newPrice) public onlyOwner {\r\n        listingPrice = _newPrice;\r\n        emit ListingPriceUpdated(_newPrice);\r\n    }\r\n\r\n    function updatePremiumFee(uint256 _newFee) public onlyOwner {\r\n        premiumFee = _newFee;\r\n        emit PremiumFeeUpdated(_newFee);\r\n    }\r\n\r\n    function getTokenbyId(uint256 _Id) public view returns (nftToken memory) {\r\n        return idTokenMapping[_Id];\r\n    }\r\n\r\n    function getAllNFTs() public view returns (nftToken[] memory) {\r\n       uint256 totalExistingNFTs = 0;\r\n\r\n       for(uint256 i = 1; i <= itemId; i++) {\r\n            if(idTokenMapping[i].Listed) {\r\n                totalExistingNFTs++;\r\n            }\r\n       }\r\n\r\n       nftToken[] memory allListedNFTs = new nftToken[](totalExistingNFTs);\r\n       uint256 index = 0;\r\n\r\n       for(uint256 i = 1; i <= itemId; i++) {\r\n        if (idTokenMapping[i].Listed) {\r\n            allListedNFTs[index] = idTokenMapping[i];\r\n            index++;\r\n        }\r\n       }\r\n       return allListedNFTs;\r\n    }\r\n\r\n    function getUserOwnedNFTs(address _user) public view returns (nftToken[] memory) {\r\n        uint256 userOwnedNFTcount = 0;\r\n        \r\n        for (uint256 j = 1; j <= itemId ; j++ ){\r\n        if( idTokenMapping[j].owner == _user && idTokenMapping[j].Listed == false )\r\n            userOwnedNFTcount++ ;\r\n        }\r\n\r\n        nftToken[] memory userOwnedNFTs = new nftToken[](userOwnedNFTcount);\r\n        uint256 index = 0;\r\n\r\n        for (uint256 i = 1; i <= itemId; i++) {\r\n            if (idTokenMapping[i].owner == _user && idTokenMapping[i].Listed == false) {\r\n                userOwnedNFTs[index] = idTokenMapping[i];\r\n                index++;\r\n            }\r\n        }\r\n\r\n        return userOwnedNFTs;\r\n    }\r\n\r\n    function likeNFT(uint256 _itemId) public {\r\n        require(_itemId > 0 && _itemId <= itemId, \"Invalid NFT Id.\");\r\n        nftToken storage token = idTokenMapping[_itemId];\r\n\r\n        if (hasLiked[_itemId][msg.sender]) {\r\n            token.likes--;\r\n            hasLiked[_itemId][msg.sender] = false;\r\n        } else {\r\n            token.likes++;\r\n            hasLiked[_itemId][msg.sender] = true;\r\n        }\r\n\r\n        emit NFTLikeToggled(_itemId, msg.sender, hasLiked[_itemId][msg.sender], token.likes);\r\n    }\r\n\r\n    function getLikes(uint256 _itemId) public view returns (uint256) {\r\n        require(_itemId > 0 && _itemId <= itemId, \"Invalid NFT ID\");\r\n        return idTokenMapping[_itemId].likes;\r\n    }\r\n\r\n    function hasUserLiked(uint256 _itemId, address _user) public view returns (bool) {\r\n        require(_itemId > 0 && _itemId <= itemId, \"Invalid NFT ID\");\r\n        return hasLiked[_itemId][_user];\r\n    }\r\n}",
  "sourcePath": "M:\\Blockchain Complete Developemnt Bootcamp\\NFT_Marketplace_App -v10_SepoliaFinalDeploy\\contracts\\Marketplace.sol",
  "compiler": {
    "name": "solc",
    "version": "0.8.20+commit.a1b79de6.Emscripten.clang"
  },
  "schemaVersion": "3.4.16",
  "updatedAt": "2024-09-15T18:27:13.115Z",
  "networkType": "ethereum",
  "devdoc": {
    "events": {
      "Approval(address,address,uint256)": {
        "details": "Emitted when `owner` enables `approved` to manage the `tokenId` token."
      },
      "ApprovalForAll(address,address,bool)": {
        "details": "Emitted when `owner` enables or disables (`approved`) `operator` to manage all of its assets."
      },
      "BatchMetadataUpdate(uint256,uint256)": {
        "details": "This event emits when the metadata of a range of tokens is changed. So that the third-party platforms such as NFT market could timely update the images and related attributes of the NFTs."
      },
      "MetadataUpdate(uint256)": {
        "details": "This event emits when the metadata of a token is changed. So that the third-party platforms such as NFT market could timely update the images and related attributes of the NFT."
      },
      "Transfer(address,address,uint256)": {
        "details": "Emitted when `tokenId` token is transferred from `from` to `to`."
      }
    },
    "kind": "dev",
    "methods": {
      "approve(address,uint256)": {
        "details": "See {IERC721-approve}."
      },
      "balanceOf(address)": {
        "details": "See {IERC721-balanceOf}."
      },
      "getApproved(uint256)": {
        "details": "See {IERC721-getApproved}."
      },
      "isApprovedForAll(address,address)": {
        "details": "See {IERC721-isApprovedForAll}."
      },
      "name()": {
        "details": "See {IERC721Metadata-name}."
      },
      "ownerOf(uint256)": {
        "details": "See {IERC721-ownerOf}."
      },
      "safeTransferFrom(address,address,uint256)": {
        "details": "See {IERC721-safeTransferFrom}."
      },
      "safeTransferFrom(address,address,uint256,bytes)": {
        "details": "See {IERC721-safeTransferFrom}."
      },
      "setApprovalForAll(address,bool)": {
        "details": "See {IERC721-setApprovalForAll}."
      },
      "supportsInterface(bytes4)": {
        "details": "See {IERC165-supportsInterface}"
      },
      "symbol()": {
        "details": "See {IERC721Metadata-symbol}."
      },
      "tokenURI(uint256)": {
        "details": "See {IERC721Metadata-tokenURI}."
      },
      "transferFrom(address,address,uint256)": {
        "details": "See {IERC721-transferFrom}."
      }
    },
    "version": 1
  },
  "userdoc": {
    "kind": "user",
    "methods": {},
    "version": 1
  }
}